:020000040800F2
:100000001008002035020008D1330008073100082D
:10001000493300089F1B0008F93C0008000000005D
:100020000000000000000000000000004D37000844
:10003000A11B0008000000004B37000893370008A0
:100040004F0200084F0200084F0200084F0200084C
:100050004F0200084F0200084F0200084F0200083C
:100060004F0200084F0200084F0200084F0200082C
:100070004F0200084F0200084F0200084F0200081C
:100080004F0200084F0200084F0200084F0200080C
:100090004F0200084F0200084F0200084F020008FC
:1000A000F93700081D380008113800080538000825
:1000B0004F0200084F0200084F0200084F020008DC
:1000C0004F0200084F0200084F0200084F020008CC
:1000D0004F020008ED3C00084F0200084F020008E4
:1000E0004F0200084F0200084F02000800F002F81B
:1000F00000F090F80AA090E8000C82448344AAF132
:100100000107DA4501D100F085F8AFF2090EBAE82F
:100110000F0013F0010F18BFFB1A43F0010318473B
:10012000345D0000545D0000103A24BF78C878C1E7
:10013000FAD8520724BF30C830C144BF04680C60ED
:10014000704700000023002400250026103A28BF35
:1001500078C1FBD8520728BF30C148BF0B60704739
:100160006E2900F08B81702900F0CD82662905F0A0
:10017000B081652905F0AD81672905F0AA81612963
:1001800005F0A98103681B0A28BF41F08001692995
:1001900000F03881642900F03581752900F0328142
:1001A0006F2900F05A82782900F09982E92900F03D
:1001B000F581E42900F0F281F52900F0EF81EF29C3
:1001C00000F05782F82900F098820368DB0928BF05
:1001D00041F08001632900F09F87732900F0A48714
:1001E000E32900F0AF87F32900F0B48700207047BF
:1001F0001FB501F005F804000020002104F050FABA
:10020000401C60600020002104F034FAE0601FBD53
:1002100010B510BD00F0C6FF1146FFF7E9FF04F06E
:10022000C9F801F0A3F803B4FFF7F2FF03BC01F033
:10023000E7F800000948804709480047FEE7FEE765
:10024000FEE7FEE7FEE7FEE7FEE7FEE7FEE7FEE786
:1002500004480549054A064B70470000F537000879
:10026000ED000008100200201008002010040020FB
:10027000100400201CB50C46064B7B4469460090D8
:10028000204600F014F904460020694600F022F9E7
:1002900020461CBD5702000010B5431C02E010F8B8
:1002A000011B71B18107FAD14FF0013202C88C1ADB
:1002B0008C4314EAC211F9D0C01A0A0603D0C01E3A
:1002C00010BDC01A10BD0A0401D0801E10BD090265
:1002D000FCD0401E10BD4FF0000200B513469446FE
:1002E0009646203922BFA0E80C50A0E80C50B1F18E
:1002F0002001BFF4F7AF090728BFA0E80C5048BFA2
:100300000CC05DF804EB890028BF40F8042B08BF3F
:10031000704748BF20F8022B11F0804F18BF00F83B
:10032000012B704770477047704710B500F0BAFA5C
:10033000006810BD10B5044600F0B4FA046010BDAA
:1003400070B5044685690068C10601D5302600E015
:100350002026C00707D070BDD4E901213046904760
:10036000206A401C20626D1EF6D570BD70B5044633
:1003700085690078C00707D170BDD4E9012120202C
:100380009047206A401C20626D1EF6D570BD09683A
:100390004A0501D540B27047C905FCD500B2704787
:1003A00009684A0501D5C0B27047C905FCD580B2BD
:1003B000704770B50C460546012A05D0287880069E
:1003C00000D5EA69002302E0012305E05B1C9342AB
:1003D00002D2E05C0028F9D1A869E618C01AA86129
:1003E000286A184428622846FFF7AAFF04E0D5E9E6
:1003F000012114F8010B9047B442F8D32846FFF7C7
:10040000B5FF70BD2DE9F04106460024106875293E
:10041000314616A510D0FFF7BAFF002802DA404295
:1004200013A507E031688A0701D512A502E0490744
:1004300004D511A5012401E0FFF7B2FF00210A2233
:1004400006F1240709E0B0FBF2FCB0FBF2F302FB7B
:100450001C00303078541846491C0028F3D123463C
:100460002A463046BDE8F04100F065BA00000000C1
:100470002D0000002B000000200000001168026821
:10048000006A530501D508700AE0D30501D508803C
:1004900006E0130603D5C217C1E9000200E00860B8
:1004A0000120704701694A1C02610878704700B555
:1004B0008FB0CDE901310021059105497944CDE99D
:1004C00003101146684600F029F90FB000BD000086
:1004D000E5FFFFFF0A6802F8010B0A6070470000A1
:1004E0002DE9FF5F15468A460446DFF8AC80F844E4
:1004F0000027D8E900103E46CDE9001010E03AF898
:1005000016106A4602A800F029FE411C07D0217887
:10051000890603D5E269391891420DD80744761C43
:100520002078800602D5E069B84205DDAE42E6DB00
:100530003AF816000028E2D1A069C01BA06120464D
:10054000FFF7FEFED8E90010CDE90010002017E00B
:100550003AF818106A4602A800F000FEB0F1FF3F1A
:1005600081460BD000250DF1080B05E0D4E90121EF
:100570001BF8050090476D1C4D45F7D308F10100AD
:10058000B0428046E4DB206A384420622046FFF710
:10059000EDFEBDE8FF9F00003E5700002DE9F04151
:1005A0008046D21D22F007020025D2E90002F5297B
:1005B00015A614D0011E72F1000106DA0023D0EB5B
:1005C000030063EB020211A608E0D8F800108B07C5
:1005D00001D50FA602E0490701D50EA60125114657
:1005E000002408F1240704E000F060F930323A55A5
:1005F000641C50EA0102F7D12B46324621464046A0
:10060000BDE8F04100F097B9000000002D000000A7
:100610002B0000002000000030B4002100F1240471
:1006200008E002F00705D208303542EA4372DB08E1
:100630006554491C52EA0305F3D10468002310A253
:10064000250707D5A40600D421B1C46901230DA252
:10065000641EC46130BC00F06EB910B5044621467A
:100660001068FFF79DFE02462046BDE810400023BB
:10067000D2E7D21D22F00701D1E90023CCE7000028
:100680000000000030000000F0B40D4601880905AC
:1006900002D5214C7C4402E01F4C7C440E340021E6
:1006A00000F1240608E002F00F071209E75D42EAB4
:1006B00003721B097754491C52EA0307F3D10278ED
:1006C0000023120704D5702D06D009B1022311347E
:1006D0002246F0BC00F02FB901231034F8E770B5C2
:1006E00004460D4621461068FFF75AFE0246294689
:1006F0002046BDE870400023C6E7D21D22F0070364
:10070000D3E90023C0E70368126843F020030360C5
:100710000823C3610023B7E7A05500002DE9F05F6F
:10072000894604464FF0000ADFF874B1FB44C0F874
:1007300020A02046E1688847002874D0252806D0EC
:10074000D4E901219047206A401C2062F1E700268D
:100750005F462046E16888472028054607DB312DA3
:1007600005D2781910F8200C08B10643F1E7B0075C
:1007700001D526F00406C4F81CA00027C4F818A070
:100780002A2D09D0284603F0FDFD38B304EB870875
:10079000303DC8F8185019E059F8041B204604EB06
:1007A00087029161E1688847012F054618D1E06909
:1007B000002820DA26F020061DE0D8F8180000EB0B
:1007C000800005EB40003038C8F818002046E1688A
:1007D0008847054603F0D6FD0028EED1012F0AD048
:1007E0002E2D08D12046E16888477F1C0546022F40
:1007F00046F02006C4DBA069002803DA404246F038
:100800000106A061F00701D026F010066C2D0BD078
:10081000682D09D04C2D39D06A2D35D0742D35D0A6
:100820007A2D33D016E038E0E1682F46204688471D
:10083000B842054609D16C2F26D04FF48060E1689C
:10084000064320468847054604E06C2F1AD04FF433
:10085000807006430DB3A5F14100192802D8203558
:1008600046F400664A462946204626604E46FFF773
:1008700077FC80B101280BD0F61D26F0070000F1AF
:10088000080956E74020E4E78020D8E70020D6E7B3
:1008900006F104094DE7284652E7206ABDE8F09FBB
:1008A0003055000000487047B001002030B5B0F16D
:1008B0000A024FEA900E71F100034EEA817EB0EB1E
:1008C0000E0061EB91014FEA101E4EEA017E10EB23
:1008D0000E0041EB11114FEA102E4EEA016E10EBA3
:1008E0000E0041EB11214FEA104E4EEA014E10EB83
:1008F0000E0041EB1141401841F100014FEAD000D8
:1009000040EA41704FEAD10110EB80054FEA8104C3
:1009100044EA907444EB01046D1944EB0404521B47
:10092000A3414FF0000348BF0A3200D530BD401C40
:1009300041F1000130BD2DE9F0470D469946924640
:10094000044600F124080168880604D5E06921F016
:100950001001216000E00120A84201DD471B00E0FA
:100960000027A1697A1902EB0900081AA061207812
:10097000C00602D42046FFF7E3FC002608E0D4E9D5
:1009800001211AF806009047206A401C761C20625C
:100990004E45F4DB2078C0060AD52046FFF7D0FC90
:1009A00006E0D4E9012130209047206A401C2062F3
:1009B000381EA7F10107F4DC07E0D4E9012118F89B
:1009C00005009047206A401C2062281EA5F1010501
:1009D000F3DC2046FFF7CAFC2078000602D502208F
:1009E000BDE8F0870120FBE770472DE9FF4F0C467B
:1009F0001E464FF0FF378BB0D2E90001DDF8608072
:100A00000A908A46C1F30A5505B93D4600210846B9
:100A10004FF00000BAF1000F00F4400005DA00EBDF
:100A200080004FF4400101EA50004FEA9059B9F1BB
:100A3000010F00DDB9460A9850EA4A000ED044F68C
:100A40001050A5F2FF3545432F14B8F1000F1ED00A
:100A50007542291E1EDDC9F100021CE0B8F1010F2C
:100A60004FF0000001D0302103E0F24305E02154B3
:100A7000401CB042FBDB30460022002121540B9980
:100A8000C1F80880C1E900200FB0BDE8F08FBD1BA0
:100A90006D1CDEE74A4600DA694206A800F0F4FB66
:100AA00006AB93E8070003AB83E8070050460A99BA
:100AB00000F0ADFC8DE80700A0F500501F38009055
:100AC0000398002D0ADD42F21F014A460844002324
:100AD00003A90390684600F016FF09E0A0F5005056
:100AE0004A461F38002303A90390684600F020FF00
:100AF0008DE807000004000C03D04FF0FF304108E0
:100B000000E01046B8F1000F03D000220092154615
:100B10001EE0751E05D4FFF7C9FE303262556D1E0A
:100B2000F9D5B3460122084302D000227F1C04E01D
:100B30002078302801D100227F1E002A099784D016
:100B40001DE0112D07DAFFF7B1FE303262556D1C42
:100B500050EA0102F5D1084302D00098C8B10EE076
:100B60000021681E05E0235C625C63542254401E31
:100B7000491C8142F7DBAB46A81B401E09900020B0
:100B800004F80B000B98099AC0F80880C0E9002B04
:100B90007AE711264FF0000857E72DE9F04F884615
:100BA0000446D21D22F0070191B0D1E90001CDE940
:100BB0000A0103F0A2F802460B98C00F01D02D20C5
:100BC00007E02068810701D52B2002E0202101EAFF
:100BD000C000032A099001D0072A05DB03464146DD
:100BE000204600F011FB0BE12078800601D5E0697A
:100BF00000E00620B8F1650F814606D0B8F1660F17
:100C000018D0B8F1670F70D131E00020B9F1110FA1
:100C1000009001DB112301E009F101030AAA01A9F7
:100C20000CA8FFF7E2FEDDE90C70002609F10105D2
:100C3000834647E001204B4600904FF000470AAA48
:100C400001A90CA8FFF7D1FEDDE90DB00C995D46B6
:100C5000002610B909F101000D18B9EB050003D405
:100C6000C0F1FF3609F10105A5EB09002BE0B9F150
:100C7000010F01DA4FF001090020B9F1110F0090C6
:100C8000484601DD112300E003460AAA01A90CA889
:100C9000FFF7ABFEDDE90C704D4600268346207859
:100CA00000070AD4AB4500DA5D4601A8012D04DD3A
:100CB000411911F8011C302907D04F4502DA17F10C
:100CC000040F04DA012082460FE06D1EEEE7002FCC
:100CD00002DCED1B3E4403E0781CA84200DD7D1CD5
:100CE000B81B00F1010A4FF000472078000703D439
:100CF000AA4501DB4FF0FF3A0021B7F1004F0DF19B
:100D000043088DF8431024D002202B23002F01DA52
:100D10007F422D230A21021EA0F1010000DC5FB1F9
:100D200097FBF1FC97FBF1F201FB1C7C17460CF1E1
:100D3000300C08F801CDEEE7A8F10100037021881E
:100D4000090501D5452100E06521A0F1010800F861
:100D5000011C09980FA9A1EB0807FF1D00B1012094
:100D6000411901EBEA70A1693844081A401EA061DC
:100D70002078C00602D42046FFF7E2FA099828B18D
:100D8000D4E901219047206A401C20622078C006E7
:100D900022D52046FFF7D4FA1EE0002E04DBB3452F
:100DA00002DD01A8805D00E03020D4E901219047F8
:100DB000206A401C2062761CAAF101005FEA000A4A
:100DC0000AD100F01DFAC0680168405CD4E9012135
:100DD0009047206A401C2062281EA5F10105DCDC3A
:100DE00007E0D4E9012118F8010B9047206A401C64
:100DF0002062381EA7F10107F3DC2046FFF7B6FAA0
:100E0000032011B041E600002DE9F04F04460D46E5
:100E1000D21D22F0070089B0D0E900974846394634
:100E200002F06BFF0246F80F01D02D2307E0206887
:100E3000810701D52B2302E0202101EAC0038DF8B0
:100E400020300BB1012000E00020032A824601D0AF
:100E5000072A04DB2946204600F0D6F93FE1207836
:100E6000800601D40D2500E0E569C7F30A560D2D73
:100E700049DA00214FEA175B08464FF00000002FC7
:100E800000F4400007DA00EB80004FF4400100EB73
:100E9000D07001EA60008115012901DD4FF0FF31BA
:100EA00000224FEA850CBCF1180F06D31346ACF1B3
:100EB00018004FF08052C24003E04FF4801323FA31
:100EC0000CF30CF10C0CBCF1200F04D3ACF1200C92
:100ED00009FA0CF001E007FA0CF000294FF0004885
:100EE00001DD18B90FE00ED140450CD319EB020912
:100EF0005F4121B9404502D19F4329EA0209BBEB7A
:100F0000175F00D0761C2088000502D57B48784406
:100F100002E07A487844193808AA302302F80A30E7
:100F2000037C0AF10101002E0AF1020A53546A46B9
:100F300002DC4FF0300101E04FF031014FF00108C9
:100F40008DF8001002D0A6F2FF3603E059EA4701FF
:100F500000D06B4E002D02DC2178090704D54FF03C
:100F600002082E218DF80110C44600210BE0C7F3C2
:100F700003433F01C35C491C6D1E02F8083005297C
:100F800008F1010801DA002DF1DC00210CE000EB92
:100F90001973491C1B786D1E082902F808304FEAA6
:100FA000091908F1010801DA002DF0DC21688B062F
:100FB00002D516E0A8F10108E04505DD02EB0803C3
:100FC00013F8013C302BF5D0B8F1000F09DD02EB2E
:100FD000080313F8013C2E2B03D1090701D4A8F113
:100FE0000108002D05DD3E2102F808106D1E08F1F4
:100FF0000108407C002E02F8080008F1010804DA1C
:101000002D20764202F8080002E02B2002F80800AA
:101010000A214FF47A70864208F101080BDB96FB37
:10102000F0F3303302F8083096FBF0F308F10108D2
:1010300000FB136601E0642E0CDB642096FBF0F3EA
:10104000303302F8083096FBF0F308F1010800FB9A
:10105000136601E00A2E06DB96FBF1F0303002F851
:10106000080008F1010896FBF1F001FB1060303038
:1010700002F80800A16908F1010808EB050202EB7B
:101080000A00081AA0612078C00602D42046FFF7A3
:1010900057F9216A08AE01EB0A00206204E0D4E9A6
:1010A000012116F8010B9047BAF1010AF7D2207816
:1010B000C00602D52046FFF743F96E4609E016F850
:1010C000010B3E280FD0D4E901219047206A401C33
:1010D0002062B8F10108F2D22046FFF747F909B0C3
:1010E0000320BDE8F08F206A2844206203E0D4E9A1
:1010F0000121302090476D1EEBD3F8E7994E000098
:1011000002FCFFFF10B5436913B1AFF3008001E0AB
:10111000FFF74FF9012010BD127800F124010A7089
:1011200000224A700122EDE711684FF0FF32E9E733
:1011300010B5436913B1AFF3008001E0FFF7D0F9B8
:10114000012010BD128800F1240182840022C28493
:101150000122EDE711684FF0FF32E9E770B516465E
:101160000C46054600F044F8036893F80101012895
:1011700006D0FF2C0FD8185D68B101202C7070BD0F
:10118000D3F807013246214603F2071303442846E9
:10119000BDE8704018474FF0FF3070BD0048704701
:1011A000B00100207546FFF7F9FFAE46050069461D
:1011B000534620F00700854618B020B5FFF748F8E1
:1011C000BDE820404FF000064FF000074FF0000848
:1011D0004FF0000B21F00701AC46ACE8C009ACE8C9
:1011E000C009ACE8C009ACE8C0098D4670470000F2
:1011F00010B500F005F8001D10BD00BFA5340000BB
:1012000000487047D00100202DE9F0411F460446F8
:1012100003260168072A01F4006004DB08B116A563
:1012200005E016A503E008B115A500E015A521F01D
:1012300010002060A069C01EA0610FB1401EA06117
:101240002046FFF77DF84FB1D4E901213846904799
:10125000206A401C2062C01C206206E0206AFAE777
:10126000D4E9012115F8010B9047761EF8D22046EB
:10127000FFF77CF8BDE8F0814E414E006E616E00D4
:10128000494E4600696E66002DE9F04781461646D4
:101290008AB0354878440DC88DE80D00324878444E
:1012A000801C03AC0DC884E80D0041F69B30084457
:1012B000372190FBF1F290FBF1F5A5F1800501FBE0
:1012C00012041B3C02D56442012000E00020DFF83C
:1012D00098A080460027FA44AAF1BE0A0EE0E00773
:1012E0000AD03246684607EB470101230AEB810129
:1012F00000F01EFB8DE8070064107F1C002CEED16F
:10130000194F7F44AE3F19E0E80715D007EB0410F2
:101310000DF1180A90E80E008AE80E00C068F0424D
:1013200001D1981908903246012306A903A800F0BC
:10133000FFFA03AB83E807006D10641C002DE3D1B6
:101340004FF0010332466946B8F1000F03A802D0FE
:1013500000F0D9FA01E000F0EBFAC9E90001C9F8A0
:1013600008200AB0BDE8F087A44B000010B5044681
:10137000AFF300802046BDE81040FEF754BF0000E8
:101380004FF0013C50F8042B51F8043B9A4221D114
:10139000A2EB0C03934313EACC1317D150F8042BA0
:1013A00051F8043B9A4215D1A2EB0C03934313EA84
:1013B000CC130BD150F8042B51F8043B9A4209D1BD
:1013C000A2EB0C03934313EACC13DBD04FF00000E5
:1013D000704700BFD01A01BAB1FA81F101F01801CB
:1013E00022FA01F0CB40C1F12001DBB2C0B2C01A39
:1013F0002CFA01F3D11A914311EAC311E6D17047D7
:1014000001491820ABBEFEE72600020070475FEAE4
:10141000400C08BF91F0000F4FEA8C234FEAC12225
:1014200043EA51514FEA1C5018BF00F5F0404FEA13
:10143000300018BF41F000415FEA6C5C00F0298089
:10144000BCF1FF3F08BF40F080407047130C06BF5F
:1014500012044FF0100C4FF0000C130E04BF1202D8
:101460000CF1080C130F04BF12010CF1040C930FC4
:1014700004BF92000CF1020CD30F04BF52000CF118
:10148000010C11464FF00002A0F11F00A0EB0C0070
:10149000704711F0004F08BF704731F000413FF432
:1014A000D5AF0B0C06BF09044FF0100C4FF0000C29
:1014B0000B0E04BF09020CF1080C0B0F04BF09014D
:1014C0000CF1040C8B0F04BF89000CF1020CCB0F44
:1014D00004BF49000CF1010CCCF12003A0EB0C007F
:1014E00022FA03F302FA0CF241EA030100F10100CF
:1014F000704720F07F4C80EA030023F07F47ACEB7D
:10150000070303F57C5300F0004003F1FF032DE9CE
:1015100080494FEA154B09B44FEA144325EA0B4EB4
:1015200024EA03480FF2042606EB132749083E7805
:101530005FEA320203FB0667C7F5000707FB06F602
:101540004FEA54374FEAD64606F1020607FB066C0F
:10155000CCF1005C4FEA1C472CEA074C07FB06F471
:101560000CFB06F504EB15464FEA961634BF002037
:101570004FF000404FEAD13706FB07FC4FEA1C4C06
:101580000CFB0BF7D21B03FB0CF761EB07010CFB09
:101590000EF7B0EB074072EB17420CFB08F734BFB5
:1015A000A2EB0742B2EB074261EB17414FEA0C4452
:1015B0004FEA910706FB07FC4FEA1C4C0CFB0BF7AC
:1015C000B0EBC74072EB573203FB0CF734BFA2EB12
:1015D000C742B2EBC74261EB57310CFB0EF7B0EBE1
:1015E000C70072EB57720CFB08F734BFA2EBC702BF
:1015F000B2EBC70261EB5771039F4FEA816141EA89
:10160000921104EBCC044FEAD1374FEA826206FB19
:1016100007FC42EA90124FEA80604FEA1C4C0CFB38
:101620000BF7D21B03FB0CF761EB07010CFB0EF76A
:10163000B0EB074072EB17420CFB08F734BFA2EB8C
:101640000742B2EB074261EB17414FEA8C554FEA74
:10165000910704EB9C2406FB07FC4FEA1C4C0CFB97
:101660000BF7B0EBC74072EB573203FB0CF734BFFC
:10167000A2EBC742B2EBC74261EB57310CFB0EF74E
:10168000B0EBC70072EB57720CFB08F734BFA2EB4C
:10169000C702B2EBC70261EB577115EB4C254FEA5D
:1016A000816141EA92114FEA82624FEAD13742EA00
:1016B000901206FB07FC44F100044FEA80604FEAF9
:1016C0001C4C0CFB0BF7D21B03FB0CF761EB070167
:1016D0000CFB0EF7B0EB074072EB17420CFB08F760
:1016E00034BFA2EB0742B2EB074261EB174115EBA7
:1016F0001C154FEA813141EA92414FEA823242EAB7
:1017000090424FEA80304FEA0C7644F1000448EAF8
:1017100003434EEA0B484FF0000EB2EB080C71EB9E
:10172000030724BF624639464EEB0E0E4FF0000B06
:101730000018524149414BEB0B0BB2EB080C71EB1B
:1017400003077BF1000B24BF624639464EEB0E0EB9
:101750004FF0000B0018524149414BEB0B0BB2EB21
:10176000080C71EB03077BF1000B24BF624639467E
:101770004EEB0E0E51EA020718BF46F0010616EBBB
:101780000E7655F1000254F1000103D5BDE8890140
:10179000BDE80088BDE88901BDE80048B61952419E
:1017A00041EB0101A3F10103704780807F7E7D7CC6
:1017B0007B7A7978777676757473727171706F6EE3
:1017C0006E6D6C6C6B6A6A6968686766666564648E
:1017D000636362616160605F5F5E5E5D5D5C5C5B18
:1017E0005B5A5A5959585857575656555555545487
:1017F000535352525251515050504F4F4F4E4E4DE5
:101800004D4D4C4C4C4B4B4B4A4A4A494949484830
:101810004847474747464646454545444444444370
:1018200043434342424242414141002B9C4630D413
:1018300077002BD01CB54FEA370703B44FF01000E8
:101840004FF01001BAF1000F06D0BCF1000FDCBF61
:1018500040F0080040F008014FF000000FBCBDE868
:1018600010400BF1010BBBF1010F08BF5FEA170736
:1018700022BF12F1010211F101014FF0004143F1C9
:10188000000300F0004043EA00007047F9D3570816
:10189000D0E746EA064613F1400F4FEA16461FDD31
:1018A00013F1200FDFBF16430A46002120335B42AD
:1018B000BED0C3F1200746EA064602FA07F74FEA10
:1018C000164646EA0706C3F1200722FA03F201FA98
:1018D00007F721FA03F14FF0000342EA0702A7E7F6
:1018E00046EA020646EA06464FEA164646EA010678
:1018F000BCBF46EA0646360C4FF000034FF000022C
:101900004FF0000194E72DE9804C9A46934670B45D
:1019100091E8380007C831EA400C48BF34EA430C6C
:1019200003D5FFF7E6FDFFF780FFF0BCBDE8008CB4
:101930002DE9804C9A46934670B491E8380007C868
:1019400010F0804F08BF13F0804F03D100F005F86E
:10195000FFF76BFFF0BCBDE8008C20F07F4780EA0A
:10196000030023F07F4C07EB0C03A3F57C5300F03E
:101970000040A3F1FE0392F0000F00F0B38095F059
:10198000000F00F077802DE901494FEA11404FEA3E
:10199000144621EA004800FB06FC24EA064708FB3F
:1019A00006F607FB08F800FB07F718EB06484CEBB8
:1019B000164C4FEA124B18EB07484FEA15464CEB12
:1019C000174022EA0B4E0BFB06FC25EA06470EFBEE
:1019D00006F607FB0EFE0BFB07F71EEB064E4CEB65
:1019E000164C4FF000061EEB074E4CEB174B18EB56
:1019F0000B0840F1000018EB0E0B58EB000840F10B
:101A000000008F1A4FF000013CBFC943661B14BF92
:101A1000B5EB040C00213CBFC943F61B4FEA174449
:101A20004EEA8E0E27EA04454FEA1C4704FB076284
:101A30002CEA074C05FB07F70CFB05F604FB0CFC36
:101A400016EB074642EB174216EB0C4642EB1C42E4
:101A50001BEB060658EB0202414146EA9E0601D501
:101A6000BDE80189B619524141EB0101A3F101031F
:101A7000BDE801894FEA14454FEA114724EA0546BB
:101A800021EA074C05FB07F406FB07F70CFB06F100
:101A900005FB0CFC11EB074144EB17444FEA1247DE
:101AA00011EB0C4144EB1C4422EA074C05FB07F206
:101AB00006FB07F70CFB06F605FB0CFC16EB0746CE
:101AC00042EB174216EB0C4642EB1C456A1854F1E8
:101AD000000148BF7047B619524141EB0101A3F123
:101AE0000103704795F0000F37D04FEA11424FEADB
:101AF000144721EA024624EA074C02FB07F106FBE1
:101B000007F70CFB06F402FB0CFC14EB074441EB5B
:101B100017414FEA154714EB0C4441EB1C4125EAF1
:101B2000074C02FB07F506FB07F70CFB06F602FB6A
:101B30000CFC16EB074645EB174516EB0C4645EB40
:101B40001C42121951F1000148BF7047B6195241A9
:101B500041EB0101A3F1010370474FEA14454FEA3D
:101B6000114724EA054621EA074C05FB07F106FB6D
:101B700007F70CFB06F24FF0000605FB0CFC12EB1E
:101B8000074241EB174112EB0C4251EB1C4148BF9D
:101B90007047921841EB0101A3F101037047FEE782
:101BA0007047000003480168486A002200B24A6298
:101BB000704700002001002072B6FEE710B590F8D3
:101BC00021100022022905D00421816380F8202001
:101BD000012010BD01680B6823F00E030B60016843
:101BE0000B6823F001030B6090F84030C46B0121B7
:101BF00001FA03F3636080F8211080F8202010467A
:101C000010BD000010B590F821100024022903D067
:101C10000421816301243DE001680A6822F00E027C
:101C20000A6001680A6822F001020A601A4A016823
:101C3000914201D1012121E0174A1432914201D190
:101C400010211BE0144A2832914201D1891515E078
:101C5000114A3C32914201D189140FE00E4A5032B0
:101C6000914202D14FF4803108E00B4A6432914234
:101C700002D14FF4801101E04FF08071064A083A1A
:101C80005160012180F82110002180F82010416B63
:101C900001B18847204610BD0800024070B50446D7
:101CA00000F004F90546601C02D0044800780444A2
:101CB00000F0FCF8401BA042FAD370BD28000020C1
:101CC0002DE9F84FDFF8B8910024A9F1040B234661
:101CD0000F2709F1040AABF1040EC9E00125A54064
:101CE0002A40AA427DD1674ED1F804C0ACEB060869
:101CF000B44532D014DCBCF1030F3AD009DCBCF19E
:101D0000000F2AD0BCF1010F1CD0BCF1020F31D161
:101D10001DE0BCF1110F17D0BCF1120F2AD119E050
:101D2000B8F5881F19D006DCB8F5803F15D0B8F596
:101D3000801F1FD111E0B8F5001F0ED0B8F5041FA9
:101D400018D10AE0CB6815E0CB681B1D12E0CB6808
:101D500008330FE0CB680C330CE08B682BB1012B00
:101D60004FF0080303D0456104E0042302E005615D
:101D700000E00023FF2A01D8064601E000F1040636
:101D80004FEA840501D9A5F12005D6F8008007FAAD
:101D900005FC28EA0C0803FA05F548EA0508C6F828
:101DA00000804D68ED0062D5374DAE6946F0010602
:101DB000AE61AD6924F0030605F001050095334DD1
:101DC00006EB050CDCF80850A607360F07FA06F8F4
:101DD00025EA0805DFF8B880404503D14FF0000838
:101DE00017E044E0DFF8AC80404502D14FF0010835
:101DF0000FE0DFF8A480404502D14FF0020808E070
:101E0000DFF89880404502D14FF0030801E04FF021
:101E1000040808FA06F848EA0508CCF808804D6876
:101E2000D9F80060ED024D4601D5164300E0964317
:101E30002E604D68DAF80060AD02554601D51643B4
:101E400000E096432E604D68DBF80060AD035D4610
:101E500001D5164300E096432E604D68DEF8006021
:101E6000ED03754601D5164300E096432E60641CD1
:101E70000D682A46E5407FF431AFBDE8F88F0000D9
:101E80000804014000001110001002400000014051
:101E900000080140000C0140001001400014014006
:101EA0000AB1016170470904FBE70000014880683E
:101EB0007047000028000020024881680278114421
:101EC0008160704728000020074810B5016841F084
:101ED00010010160032000F075F80F2000F006F8F3
:101EE00000F024F8002010BD0020024070B50D4D18
:101EF00004464FF47A712878B1FBF0F00A4909687A
:101F0000B1FBF0F000F0DCFA48B9102C07D2002247
:101F10002146501E00F036F800206C6070BD012094
:101F200070BD000028000020340000200C4808B5D7
:101F3000816941F001018161816901F00101009134
:101F4000C16941F08051C161C06900F080500090CA
:101F50000448416821F0E06141F00071416008BD32
:101F60000010024000000140002809DB00F01F02C1
:101F7000012191404009800000F1E020C0F80011EB
:101F800070470000F0B40E4B1B680C46C3F30223ED
:101F9000C3F10705042D00D90425191D072901D215
:101FA000002300E0DB1E012606FA05F1491E214050
:101FB00099409E40761E16403143F0BC01F0B1BE00
:101FC0000CED00E0064900F0070208684FF6FF0339
:101FD000184040EA0220034A10430860704700009E
:101FE0000CED00E00000FA052DE9F0470F46050072
:101FF00061D0434E306800F00700B84209D2306823
:1020000020F0070038433060306800F00700B84225
:1020100051D128683B4C810712D5400703D5606831
:1020200040F4E06060602878000703D5606840F401
:10203000605060606068A96820F0F000084360604C
:102040002878C00728D06868012810D021680228A5
:1020500010D0890700292EDA616821F003010143BD
:102060006160FFF723FF804641F288390DE0216867
:102070008903EFE78901EDE7FFF718FFA0EB0801FF
:10208000494502D90320BDE8F0876068696800F01F
:102090000C00B0EB810FEFD1306800F00700B842C0
:1020A0000BD9306820F0070038433060306800F00A
:1020B0000700B84201D00120E5E72878400705D5A0
:1020C0006068E96820F4E0600843606028780007F1
:1020D00006D56068296920F4605040EAC10060605C
:1020E00000F038F86168084AC1F30311515CC84038
:1020F0000649086006480068FFF7F8FE0020C2E7BE
:102100000020024000100240185C0008340000204B
:102110002C0000200448054900684968044AC1F3BE
:102120000221515CC840704734000020001002407A
:10213000285C00080448054900684968044AC1F35E
:10214000C221515CC840704734000020001002409A
:10215000285C00080E4A51680E4801F00C03042B5D
:1021600011D0082B0FD10C48C1F38343C903C05CC5
:102170000AD55168084AC1F34041921E515C054A94
:102180005043B0FBF1F070470449484370470000EA
:102190000010024000127A00085C000800093D00AF
:1021A0002DE9F84F040070D02078C04DC00749D009
:1021B0006868C0F38100012807D06868C0F3810017
:1021C000022809D16868C00306D52868800339D57C
:1021D00060680028E7D035E06068B0F5803F0BD03C
:1021E00010B1B0F5A02F11D0286820F480302860FD
:1021F000286820F4802002E0286840F480302860BD
:10220000606890B1FFF752FE06460AE0286840F485
:1022100080202860F0E700BFFFF748FE801B64289D
:1022200073D828688003F7D50CE0FFF73FFE064619
:1022300005E000BFFFF73AFE801B6428F0D828684D
:102240008003F7D420789A4E80074FF001094FF0B1
:10225000000839D5686810F00C0F07D06868C0F323
:102260008100022809D16868C00306D42868800765
:1022700014D52069012808D110E02069B0B1C6F852
:102280000090FFF713FE074605E00AE1FFF70EFE98
:10229000C01B0228C4D828688007F7D52868616960
:1022A00020F0F80040EAC10028600DE0C6F8008088
:1022B000FFF7FCFD074604E0FFF7F8FDC01B02280E
:1022C00023D828688007F7D4207800072CD57948D0
:1022D000A169D9B1C0F80090FFF7E8FD074604E016
:1022E000FFF7E4FDC01B02280FD8686A8007F7D506
:1022F00071484FF4FA510068B0FBF1F0009000BF54
:102300000098411E0091FAD20EE080E0C0F80080F3
:10231000FFF7CCFD074604E0FFF7C8FDC01B02280D
:1023200075D8686A8007F7D42078400760D5E869D7
:102330000027C00008D4E86940F08050E861E869EF
:10234000012700F0805000905C480168C90513D453
:102350000168834641F480710160FFF7A7FD824662
:1023600006E000BFFFF7A2FDA0EB0A0064284ED8EC
:10237000DBF80000C005F5D5E06801280AD008B1F7
:10238000052813D0286A20F001002862286A20F06E
:10239000040002E0286A40F001002862E06841F28F
:1023A000883B98B1FFF782FD82460BE0286A40F037
:1023B00004002862EEE700BFFFF778FDA0EB0A01FA
:1023C00059455AD8286A8007F6D50CE0FFF76EFD0C
:1023D000824605E0FFF76AFDA0EB0A0159454CD89B
:1023E000286A8007F6D41FB1E86920F08050E861C0
:1023F000E06988B36968C1F38101022944D00228E9
:10240000C6F8608004D0FFF751FD044638E034E0A0
:10241000FFF74CFD074604E0FFF748FDC01B02280C
:102420002BD828688001F7D4206AB0F5803F05D109
:102430006868A16820F4003008436860D4E90801A6
:102440000843696821F4741108436860C6F8609015
:10245000FFF72CFD044606E025E000BFFFF726FD50
:10246000001B022809D828688001F7D51BE000BFAF
:10247000FFF71CFD001B022802D90320BDE8F88FDE
:1024800028688001F4D40EE00128F7D06868226A39
:1024900000F48031914204D1616A00F470108842E6
:1024A00001D00120EAE70020E8E700000010024028
:1024B000000042428004424234000020007000408C
:1024C00010B5401EB0F1807F01D3012010BD4FF048
:1024D000E02460610F21601701F023FC0020A0615F
:1024E00007202061002010BD7047704770B590F83C
:1024F0003C20012A26D0012480F83C40022280F8AA
:102500003D2003685A689D6822F070060A683243CD
:102510005A600D4B02689A4208D0B2F1804F05D044
:102520000A4B9A4202D00A4B9A4204D1496825F0DC
:1025300080031943916080F83D40002180F83C10F1
:10254000084670BD022070BD002C01400004004010
:102550000008004010B5040003D094F83D0010B10D
:1025600007E0012010BD002084F83C00204600F068
:102570001FF8022084F83D00211D206801F054F965
:10258000012084F8460084F83E0084F83F0084F877
:10259000400084F8410084F8420084F8430084F845
:1025A000440084F8450084F83D00002010BD000080
:1025B00008B51D4A01681D48914229D1816941F43D
:1025C000006181618069002200F400600090114682
:1025D0001820FFF7D7FC1820FFF7C6FC0022114691
:1025E0001920FFF7CFFC1920FFF7BEFC002211468F
:1025F0001A20FFF7C7FC1A20FFF7B6FC002211468D
:102600001B20FFF7BFFCBDE808401B20FFF7ACBC58
:10261000B1F1804F07D1C16941F00101C161C069C9
:1026200000F00100009008BD002C014000100240A5
:1026300090F83D10012901D001207047022180F857
:102640003D100168CA6842F00102CA6000680B4987
:10265000884208D0B0F1804F05D00949884202D0A5
:102660000849884204D1816801F00701062903D096
:10267000016841F00101016000207047002C014019
:10268000000400400008004070B5044690F83C008B
:102690000025012817D0012684F83C60022084F828
:1026A0003D002068826822F0770222F47F42826037
:1026B0000868502838D00DDC20284FD005DC90B3B6
:1026C000102811D14AE0022070BD302846D04028A1
:1026D0000AD13BE060282FD070280DD0B0F5805F84
:1026E00003D0B0F5005F12D0012584F83D600020D2
:1026F00084F83C00284670BDCB68D1E901212068F0
:1027000001F0DBF82068816841F0770109E0CB68CF
:10271000D1E90121206801F0D0F82068816841F4F6
:1027200080418160E1E719E0CA684968206801F0EA
:1027300079F95021206806E0CA684968206801F0EC
:1027400082F96021206801F0C2F8CEE7CA684968C2
:10275000206801F067F940212068F4E7226801460B
:102760001046F0E72DE9F0410D46040003D094F83F
:102770003D0018B108E00120BDE8F081002084F898
:102780003C00204600F040F8022084F83D0020681C
:10279000816844F2070291438160211D206801F0A5
:1027A00043F8226890689169166A2B68AF69034301
:1027B00040F20330814341EA0721A868EF690843EA
:1027C0004FF6FC418843E96840EA07200143286945
:1027D0002F6A000140EA0730084369686D6926F0F6
:1027E000220646EA0515294393602268906154F851
:1027F000460B0162012004F81F09E0752076E0769F
:102800002077A0750020B7E700B585B000210091C2
:1028100001910291039100680E49884218D10E4837
:10282000C16941F00201C161C16901F00201049175
:10283000816941F0040181618069694600F004000A
:102840000490C0200090012002900448FFF738FA5D
:1028500005B000BD00040040001002400008014027
:1028600070B590F83E60044690F83F5090F84230C2
:1028700090F84320022021B104290ED0012E1BD153
:1028800014E0012E18D1012B16D184F83E0084F8F3
:10289000420001220021206820E0012D0CD1012AF4
:1028A0000AD184F83F0084F8430014E0012D03D1DD
:1028B000012B01D1012A01D0012070BD84F83E0016
:1028C00084F83F0084F8420084F84300012200218C
:1028D000206800F0E5FF01220421206800F0E0FFFD
:1028E0002068016841F001010160002070BD70475F
:1028F0002DE9F04104460068C66805694FF00007FD
:10290000A90713D5B10711D5F91E01610120207760
:10291000206880698007204602D0FFF7E8FF04E0C6
:1029200000F0A2F8204600F034F92777680716D5A2
:10293000700714D521686FF0040008610220207729
:102940002068806910F4407F204602D0FFF7CFFF57
:1029500004E000F089F8204600F01BF927772807EB
:1029600015D5300713D521686FF0080008610420E1
:1029700020772068C0698007204602D0FFF7B7FFA4
:1029800004E000F071F8204600F003F92777E8062C
:1029900016D5F00614D521686FF0100008610820E4
:1029A00020772068C06910F4407F204602D0FFF7EE
:1029B0009EFF04E000F058F8204600F0EAF8277780
:1029C000E80708D0F00706D021686FF00100086121
:1029D000204600F02DF9280608D5300606D52168D6
:1029E0006FF0800008612046FFF77EFD680608D57D
:1029F000700606D521686FF040000861204600F09F
:102A00001FF9A8060AD5B00608D521686FF0200086
:102A100008612046BDE8F041FFF767BDBDE8F081E1
:102A200000B585B0002100910191029103910068E9
:102A3000B0F1804F11D10A48816941F004018161F0
:102A40008069694600F00400049004200090022090
:102A5000019003900348FFF733F905B000BD000073
:102A60000010024000080140704770B5044690F81D
:102A70003C0000260D4601280FD0012084F83C00C0
:102A80006AB1042A1DD0082A2FD00C2A3FD0012673
:102A9000002084F83C00304670BD022070BD2068E4
:102AA00000F01EFF2068816941F008018161206803
:102AB000816921F004018161206881692A691143DB
:102AC00011E0206800F034FF2068816941F4006162
:102AD00081612068816921F4806181612068816958
:102AE0002A6941EA02218161D2E7206800F04CFFA7
:102AF0002068C16941F00801C1612068C16921F005
:102B00000401C1612068C1692A69114311E020688C
:102B100000F066FF2068C16941F40061C16120686E
:102B2000C16921F48061C1612068C1692A6941EAF3
:102B30000221C161ACE710B5040003D094F83D0058
:102B400010B107E0012010BD002084F83C002046B1
:102B500000F01EF8022084F83D00211D206800F0DE
:102B600063FE012084F8460084F83E0084F83F00AC
:102B700084F8400084F8410084F8420084F843005F
:102B800084F8440084F8450084F83D00002010BD1E
:102B90007047704710B50446022249B104290ED08F
:102BA000082913D094F84100012816D0012010BD47
:102BB00094F83E000128F9D184F83E200FE094F803
:102BC0003F000128F2D184F83F2008E094F840004B
:102BD0000128EBD184F8402001E084F84120012253
:102BE000206800F05DFE0F492068884203D1426CE6
:102BF00042F4004242642068884208D0B0F1804F1D
:102C000005D00949884202D00849884204D1816828
:102C100001F00701062903D0016841F001010160BC
:102C2000002010BD002C01400004004000080040BE
:102C30000249884201D100F089BB70479000002012
:102C40007047704770470000F8B50168044608688F
:102C5000CA684B6910F00F0F4FF0000559D003F010
:102C6000010602F49077374365D0C10705D0D1053E
:102C700003D5616C41F001016164410705D5D907B5
:102C800003D0616C41F002016164810705D5D90769
:102C900003D0616C41F004016164010707D502F0C3
:102CA0002001314303D0616C41F008016164616C23
:102CB00000293AD0800604D5900602D5204600F0BF
:102CC00003FF20684069616CC0F38010090700D4DD
:102CD00060B3204600F0D1FE20684069400621D54F
:102CE0002068143050E8001F21F0400140E8001235
:102CF000002AF5D1E06BA8B16D494163E06BFEF7A6
:102D000081FF002811D0E06B416B01B0BDE8F040BD
:102D1000084783060FD593060DD52046BDE8F84039
:102D200000F0D2BE2046FFF78DFFF8BD2046FFF72A
:102D300089FF6564F8BD266B2023012E7CD1C60671
:102D40007AD5D60678D508684868009048694FF06B
:102D50000206400640D5E16B086840680004000C9C
:102D6000E8D0A28D8242E5D9E085886920282DD05F
:102D700020680C3050E8001F21F4807140E80012F8
:102D8000002AF5D12068143050E8001F21F001011D
:102D900040E80012002AF5D12068143050E8001FE6
:102DA00021F0400140E80012002AF5D184F84230B9
:102DB000256320680C3050E8001F21F0100140E826
:102DC0000012002AF5D1E06BFEF7F8FE6663A08DD5
:102DD000E18D401A81B22AE0A08DE18D401A81B2C6
:102DE000E08D0028A6D00029A4D022680C3252E839
:102DF000000F20F4907042E80007002FF5D1206802
:102E0000143050E8002F22F0010240E80027002F84
:102E1000F5D184F84230256320680C3050E8002F4B
:102E200022F0100240E80023002BF5D16663204613
:102E3000FFF707FFF8BDFFE705062BD5150629D5D7
:102E400094F841002128F5D1A068B0F5805F01D148
:102E50002069B0B1206A411C216221680078486075
:102E6000E08C401E0004000CE084E3D12068C168BF
:102E700021F08001C1602068C16841F04001C1605B
:102E8000D8E7206A0088C0F308004860206A801CE8
:102E90002062E5E74006CDD55006CBD5CA6820466E
:102EA00022F04002CA6084F8413000F02BF9C1E7FB
:102EB0006B3A000870B5040004D094F84100002576
:102EC00010B106E0012070BD84F84050204600F0AB
:102ED00023F8242084F841002068C16821F40051BF
:102EE000C160204600F052FE2068016921F4904143
:102EF00001612068416921F02A0141612068C168AF
:102F000041F40051C1606564202084F8410084F8D8
:102F100042006563002070BD30B585B00024009488
:102F20000194029403940068184988422CD11848EF
:102F3000816941F480418161816901F4804104919A
:102F4000816941F0040181618069124D00F0040043
:102F500004904FF400700090022001900320039031
:102F600069462846FEF7ACFE2815CDE900046946FF
:102F700028460294FEF7A4FE002211462520FFF702
:102F800001F82520FEF7F0FF05B030BD0038014004
:102F9000001002400008014090F84230202B01D080
:102FA0000220704721B11AB10023036300F04ABE2A
:102FB0000120704770B5224988423FD1214B234CF4
:102FC00021491A782069612A1CD0732A1DD0642AED
:102FD00028D0662A32D1002504F11C06C5F104016F
:102FE0000A2000F0C1FB715DB4F90020303901FB0B
:102FF00000206D1CEDB22080052DEFD31449012077
:1030000008700CE002F016F801E002F0EDF9206122
:1030100001F0E4FF02460B460EA000F0ACFB0122DB
:10302000084906E000202080662008490522187023
:103030001C31BDE870400248FFF7AEBF70BD000014
:103040006801002001000020000020410400002051
:10305000000000205461726765745F76616C3A25E8
:10306000660A00002DE9F843044690F841009846AE
:1030700016460D46202802D00220BDE8F88385B10F
:103080007EB100206064212084F84100FEF70EFF2D
:10309000A6848146E684A0682027B0F5805F02D030
:1030A00003E00120E9E7206910B12E4600250EE07B
:1030B00000260CE08021204600F0DFFDA8B9C6B153
:1030C00016F8010B21684860E08C401EE084E08C1B
:1030D0004B464FF00002CDF800800028EAD14FF0B7
:1030E0004001204600F0C9FD40B184F84170032042
:1030F000C3E735F8020BC0F30800E3E784F841703A
:103100000020BAE77047FEE72DE9F04186B00024C1
:1031100021480094019402940394816941F02001B4
:103120008161816901F020010491816941F004010C
:103130008161816901F004010491816941F0080114
:1031400081618069154F00F0080004900022302151
:103150003846FEF7A5FEDFF848804FF4407600229F
:1031600031464046FEF79CFE3020009001AA012027
:10317000022582E8310069463846FEF7A1FD01AA22
:103180001120009682E8310069464046FEF798FD1E
:1031900006B0BDE8F08100000010024000080140C8
:1031A000000C014010B586B000241848009401942A
:1031B00002940394049414490594016041F61F415C
:1031C000C0E901146321C0E903148021C0E905416D
:1031D000FFF7C0F908B1FEF7EFFC4FF48050009004
:1031E00069460A48FFF750FA08B1FEF7E5FC049477
:1031F00004A906480594FFF779F9002801D0FEF7E5
:10320000DBFC06B010BD0000002C01409000002047
:1032100010B58EB000240794089409940A940B9476
:103220001C2168460C94FDF756F81D484FF080416C
:10323000C0E9001442F20F71C0E9024104618461E7
:10324000FFF788F908B1FEF7B7FC4FF480500790FC
:1032500007A91348FFF718FA08B1FEF7ADFC1048AC
:10326000FFF769FC08B1FEF7A7FC0B940BA90C480B
:103270000C94FFF73BF908B1FEF79EFC6020CDE906
:10328000000402940822694605480494FFF7EDFB08
:1032900008B1FEF791FC0248FFF7C2FB0EB010BD6B
:1032A000D800002010B58CB024216846FDF713F833
:1032B00000241648099414490A94C0E900144FF6F2
:1032C000FF71C0E90241046184610320CDE900047B
:1032D0000120CDE902040494CDE905400794694634
:1032E0000A480894FFF73EFA08B1FEF765FC099416
:1032F00009A906480A94FFF7F9F8002801D0FEF75B
:103300005BFC0CB010BD0000000400402001002058
:103310000C4810B50A4901604FF4E13141600021C9
:1033200081600C22C160C0E904128161C161FFF7B4
:10333000C1FD002803D0BDE81040FEF73DBC10BD24
:103340000038014068010020FEE7000070B5FEF77C
:1033500029FC01F0FFFE0A4C05462946E060606941
:1033600001F068FE60612A460648216900F09AF97A
:10337000A06001F0D3FEBDE8704000B200F004B8D8
:10338000040000203800002070B50F4D0F4E0400DF
:103390000CD4012210212846FEF782FD00222021B4
:1033A0002846FEF77DFD3068C46370BD0022102101
:1033B0002846FEF775FD012220212846FEF770FD04
:1033C00031686042C86370BD00080140D800002029
:1033D000FEE770B500240021204600F0ABF8002580
:1033E000002000F04EF96D1CEDB2802DF8D3641C66
:1033F000E4B2082CEFD370BD10B5FFF785FE0120B5
:1034000000F01EF9BDE81040012000F021B970B5B0
:1034100000240546802626FA04F0284000F018F91A
:10342000012000F00DF9002000F00AF9641CE4B25C
:10343000082CF0D3012000F003F9BDE87040002013
:1034400000F0FEB810B5012000F002F9012000F0F4
:10345000F7F8002000F0FCF8BDE81040002000F074
:10346000EFB810B5002000F0F3F8012000F0E8F804
:10347000BDE81040012000F0EBB810B500204FF47B
:103480007A720021491C9142FCD3401C9042F8D32F
:10349000FFF7B2FFAE2000F0E3F8D52000F0E0F82F
:1034A000802000F0DDF8A82000F0DAF83F2000F0DE
:1034B000D7F8D32000F0D4F8002000F0D1F8402055
:1034C00000F0CEF8A12000F0CBF8C82000F0C8F83A
:1034D000DA2000F0C5F8122000F0C2F8812000F0D8
:1034E000BFF8CF2000F0BCF8D92000F0B9F8F120E7
:1034F00000F0B6F8DB2000F0B3F8302000F0B0F8B0
:10350000A42000F0ADF8A62000F0AAF88D2000F06D
:10351000A7F8142000F0A4F8AF2000F0A1F8BDE84F
:103520001040FFF756BF0246012000E05043491EFD
:10353000FCD2704710B50C4640F0B00000F090F897
:10354000102040EA141000F08BF804F00F00BDE8E2
:10355000104000F085B800002DE9F0410746CE008C
:103560004000083E801E15464FF0FF38F1B2C0B251
:10357000FFF7E0FF1148002400EB05152819A0F51E
:10358000805090F8000E00F07CF8641CE4B2082C27
:10359000F4D308EB4700F1B2C0B2FFF7CBFF002431
:1035A0002819A0F5805090F8080E00F06AF8641C05
:1035B000E4B2082CF4D3BDE8F081000016560008F0
:1035C0002DE9F0471E4614008846814604D42B227C
:1035D000FFF7C2FF254603E02D22FFF7BDFF65423E
:1035E00000240A2714E0311B0A20491EFFF79BFF25
:1035F000B5FBF0F0B0FBF7F107FB110208EB04009C
:10360000401CC1B248463032FFF7A6FF641CE4B24A
:10361000B442E8D3BDE8F0872DE9F04115460E46E7
:103620000746002406E03019C1B23846FFF794FF80
:10363000641CE4B22A5D002AF5D1BDE8F0810000E7
:10364000C2B24FF480710148FEF72ABC000C014061
:10365000C2B24FF400710148FEF722BC000C0140D9
:1036600010B50446FFF7EEFE7820FFF7D0FE0020ED
:10367000FFF7CDFE2046FFF7CAFEBDE81040FFF77A
:10368000F0BE10B50446FFF7DDFE7820FFF7BFFE61
:103690004020FFF7BCFE2046FFF7B9FEBDE8104012
:1036A000FFF7DFBE2DE9F0410B46044611461846F0
:1036B00001F09AFE6061256906460121284601F065
:1036C0006CFF07463046E16801F0B4FC394601F072
:1036D0008BFEA16801F08AFD07463146606801F063
:1036E00085FD80462946304601F07EFE216801F0C6
:1036F0007DFD414601F09EFC394601F09BFC216AAC
:1037000001F098FC2062C4E90356A16A01F03AFE78
:10371000A06A0BD380F00040216A01F033FE02D38F
:10372000206ABDE8F081A06A80F000402062F8E7DE
:1037300010B5029C80E80E0000210162C161416168
:10374000016184624462C16010BD7047704700002F
:1037500004480178012901D0002070470021017040
:1037600001207047000000200246012000E0504385
:10377000491EFCD270470FB400B599B01BAA684629
:103780001A99FCF777FD684600F004FE19B05DF861
:1037900014FBFEF791BB30B58FB028216846FCF7CB
:1037A0009AFD14210AA8FCF796FD01210804CDE931
:1037B00000100024029402250491CDE907504FF433
:1037C000E01009906846FEF7EBFC08B172B6FEE720
:1037D0000F20CDE90A054FF48060CDE90C400221AD
:1037E0000AA80E94FEF700FC002801D072B6FEE78E
:1037F0000FB030BD704700000148FFF779B80000F6
:10380000900000200148FFF773B8000090000020EE
:103810000148FFF76DB80000900000200148FFF755
:1038200067B8000090000020F0B50268194B1A4CF0
:103830001A4D4FF08047984205D0B84203D0A042BD
:1038400001D0A84203D122F070064A683243984260
:1038500005D0B84203D0A04201D0A84203D122F43F
:103860004074CA6822434C6922F0800222430260FD
:103870008A68C2620A688262984201D1096901635A
:10388000012141610169C90703D0016921F00101EA
:103890000161F0BD002C0140000400400008004020
:1038A00010B501F01F030121046A99408C430462A2
:1038B000016A9A401143016210BD10B5846842EA62
:1038C000032224F47F440A432243826010BD8268AD
:1038D00022F070020A4342F0070181607047000045
:1038E00030B5036A026A22F001020262426884690A
:1038F00024F073050C682C4323F002058B682B43DE
:103900000A4DA8420BD123F00805CB6822F440727F
:103910002B434D6923F0040315438A692A4342600F
:10392000846149684163036230BD0000002C01409E
:1039300030B5026A036A23F01003036243688469A6
:103940000D6824F4E64444EA05248D6822F0200240
:1039500042EA05120B4DA8420ED1CD6822F080023A
:1039600042EA05124D6923F4406343EA85038D69F9
:1039700022F0400243EA8503436084614968816321
:10398000026230BD002C014030B5036A026A22F4A5
:10399000807202624268C46923F4007324F07305E4
:1039A0000C682C438D6843EA05230C4DA8420ED1C8
:1039B000CD6823F4006343EA05234D6922F44052A5
:1039C00042EA05128D6923F4806342EA05124260DF
:1039D000C4614968C163036230BD0000002C01402E
:1039E00030B5046A026A22F4805202624268C369F6
:1039F0000D6823F4E64343EA05238D6824F400545C
:103A000044EA0534064DA84204D14D6922F48042AF
:103A100042EA85124260C36149680164046230BDB4
:103A2000002C014010B5036A046A24F0010404620A
:103A3000846924F0F00444EA021423F00A020A43E1
:103A40008461026210BD10B5036A046A24F0100498
:103A50000462846923F0A00324F4704444EA02322F
:103A600043EA01118261016210BD10B5406A002174
:103A7000C185C184FFF7E6F810BD01680C3151E83B
:103A8000002F22F4907241E80023002BF5D1016849
:103A9000143151E8002F22F0010241E80023002BED
:103AA000F5D1016B012909D101680C3151E8002FD2
:103AB00022F0100241E80023002BF5D1202180F8EC
:103AC000421000210163704708B590F84210222986
:103AD00001D0022008BD82684FF480539A4201D180
:103AE000016921B1816A9A421BD04AB10AE0026899
:103AF000816A5268C2F308020A80816A891C08E060
:103B0000026972B10268526802F07F020A70816A2B
:103B1000491C8162C18D491E0904090CC18503D06D
:103B20001BE002685268F1E70168CA6822F02002CF
:103B3000CA600168CA6822F48072CA6001684A6972
:103B400022F001024A61202180F8421000214163E5
:103B5000026B012A03D0FFF72DFA002008BD016394
:103B600001680C3151E8002F22F0100241E80023D7
:103B7000002BF5D101680A68D20602D50A684968A7
:103B80000091818DFFF75DF8E7E7000070B504460E
:103B900000680169E26821F4405111430161216923
:103BA000A0680843616908432168CA6841F20C6350
:103BB0009A430243CA6020684169A26921F44071B6
:103BC000114341611E492068884202D1FEF7B2FAD2
:103BD00001E0FEF79FFA00EBC00101EB0012606804
:103BE00064218000B2FBF0F3B3FBF1F36FF0180631
:103BF0007343B2FBF0F5B2FBF0F605EB830532231D
:103C000003EB0515B5FBF1F5B6FBF1F605F0F00594
:103C100005EB0615B2FBF0F6B2FBF0F0B0FBF1F0ED
:103C20006FF01802504306EB800003EB0010B0FB6E
:103C3000F1F0216800F00F002844886070BD00009A
:103C40000038014081628285C285002141642221C1
:103C500080F84210016921B10168CA6842F480729B
:103C6000CA6001684A6942F001024A610068C1689D
:103C700041F02001C160002070472DE9F8439846CB
:103C800017460D460446089E24E0701C22D0FEF71D
:103C90000DF9A0EB0800B0421AD8CEB12068C16877
:103CA000490717D5802D15D0402D13D00168C94381
:103CB00009070FD401680025406800902046FFF7EF
:103CC000DCFE0820606484F840500120BDE8F883E1
:103CD0000320FBE72068006835EA000004D00020DC
:103CE000B842D2D00020F1E70120F9E70148FEF701
:103CF000ABBF000068010020FEE7490050EAC12088
:103D000018BF04204A0D18BF40F0010040F2FF72B6
:103D1000B2EB515F08BF40F00200012808BF052048
:103D200070470907090E002804DB00F1E02080F845
:103D30000014704700F00F0000F1E02080F8141D1F
:103D4000704700002DE9F74F144694B00021C4E9F4
:103D500002111599079121F00045C9498D4206DCF1
:103D60001599C4E9000117B00020BDE8F08FC549DE
:103D7000DFF814A3A9423CDD0799C44E0029C44FC3
:103D8000C44A1599534619DD01F03EF8554506D051
:103D9000C14AC24B01F038F8C4E900010AE04FF013
:103DA000D352BE4B01F030F832463B4601F02CF8BE
:103DB000C4E9000117B00120BDE8F08F00F0B8FCA5
:103DC000554506D0B44AB54B00F0B2FCC4E9000139
:103DD0000AE04FF0D352B14B00F0AAFC32463B460A
:103DE00000F0A6FCC4E9000117B04FF0FF30BDE8B9
:103DF000F08FAB49A942159978DB21F00041834649
:103E00008846A84AA84B00F0F5FE0022A74B00F018
:103E10008FFC00F095FE099000F0C1FE06460F46AB
:103E20009C4A534600F0E6FE43465A4600F0E0FF47
:103E300080468A46984A994B3046394600F0DAFE69
:103E40002A0D01250B924246534600F0D1FF032D67
:103E5000C4E9000139D00B98C1F30A51401A05EBAF
:103E600045111139814230DA9148C346784400EB5C
:103E70000510CDF80CA00C90D0E90023304639464F
:103E800000F0B8FE02460B4604910690584603998E
:103E900000F0BAFF80468A4602460B465846039910
:103EA00000F0B2FF049B069A00F0AEFF83460C9828
:103EB00003913946D0E90223304600F09BFE5A4672
:103EC000039B00F0A1FF6D1CBDE707980028A2BF6F
:103ED000099817B0BDE8F08F616881F0004161601A
:103EE000099817B04042BDE8F08FFFE78446159867
:103EF000C1F31301C0F30A50A0F2F5304FEA601885
:103F000000F01F06C6F120001390002006900790D5
:103F100041F4801E05206D4676B1664A08EB00012B
:103F20007A4452F8213002EB8101B3404A68139978
:103F300022FA01F1194305E05F4908EB00027944D8
:103F400051F82210A1FB0E27A1FB0C131A449A4230
:103F500034BF0123002303EB070A05EB8003D3E9F9
:103F600001B70F448F4234BF0121002193448B4499
:103F700011B1934502D903E0934501D2012100E03C
:103F80000021C3E901B7514445F82010011EA0F1FA
:103F90000100C1DC0298059F00F10050800F1290D3
:103FA0000298DDE90356800000F0F9FD83462846BB
:103FB0000D9100F00BFE6FF01D0201F0C0FACDE98B
:103FC0000E01304600F002FE6FF03D0201F0B7FA3C
:103FD00080468A46384600F0F9FD6FF05D0201F038
:103FE000AEFA074642465346119100F0A1FBDDE9C7
:103FF0000E2300F09DFB5A460D9B00F099FB002517
:104000000E465A4628460D9B00F0FEFEDDE90E23C3
:1040100000F0FAFE4246534600F0F6FE3A46119B87
:1040200000F0E6FEDFF898A0244A534600F0E2FDD7
:1040300007468846234A244B3146284600F0DAFDDD
:104040003A46434600F074FB074688464FF0A842C4
:1040500053463146284600F0CDFD3A46434600F02F
:1040600067FB159A12F0004F04D0129A81F00041BC
:1040700052421292C4E90001129817B0BDE8F08FC5
:10408000FB21E93F7CD90240FB21F93F7370032EED
:104090008A19A33B000040543163621A61B4D03DD9
:1040A000FB21394183C8C96D305FE43F0000E03F28
:1040B000381E0000B41D0000961D0000182D445449
:1040C000FB21F93D3326A611460B113C2DE9FF4D8E
:1040D00021F0004807460C46B8F1795F08DA00F095
:1040E0002FFD002801BF0020324904B0BDE8F08D4B
:1040F0003A4623461046194600F07CFD0546024626
:104100002D480E460B460621784400F05DF82A46FD
:10411000334600F06FFDDDE9022382468B463846C8
:10412000214600F067FD04460F4652465B4628468E
:10413000314600F05FFD22463B4600F065FE074633
:104140008A464FF0FF322846314601F0F8F91B4A03
:1041500090450ADA3A46534600F056FE04B0002273
:10416000BDE8F04D134B00F043BE154A4245A8BFD1
:10417000A8F500154FF00004B8BF124D22462B469B
:1041800000F042FE0646884622462B46002009499A
:1041900000F03AFE04460D463A4653463046414644
:1041A00000F032FE04B022462B46BDE8F04D00F090
:1041B0001FBE00000000F03F6C1B00003333D33FF4
:1041C0000000E93F0000D23F2DE9F0414F1E00EB17
:1041D000C7010446D1E9000115461E4637F0060224
:1041E0000DD02A46334600F005FD7F1E04EBC703C1
:1041F000D3E9002300F09CFA37F00602F1D1022F38
:1042000025D0042F13D0062F18BFBDE8F0812A4611
:10421000334600F0EFFCD4E90A2300F089FA2A467D
:10422000334600F0E7FCD4E9082300F081FA2A467F
:10423000334600F0DFFCD4E9062300F079FA2A4681
:10424000334600F0D7FCD4E9042300F071FA2A4683
:10425000334600F0CFFCD4E9022300F069FA2A4685
:10426000334600F0C7FCD4E90023BDE8F04100F07C
:104270005FBA00002DE9FF4D054621F0004084B0F3
:104280000C46B0F1795F0BDA2846FFF736FD0428BB
:1042900008BF00F06FF8284608B02146BDE8F08D51
:1042A0002A460B46104600F0A5FC06460F462A4655
:1042B000234600F09FFC804626488A4632463B460D
:1042C00005217844FFF780FF83461098029160B380
:1042D000214A224B4046514600F08CFCCDE90001BA
:1042E0005A4640465146029B00F084FC824688466E
:1042F000DDE906014FF0FF3201F021F95246434655
:1043000000F082FD32463B4600F074FCDDE90623F6
:1043100000F07AFDDDE9002300F076FD08B02A46C2
:104320002346BDE8F04D00F063BD0B465A463046CB
:10433000394600F05FFC084A084B00F0F9F94246A4
:10434000534600F057FC08B02A462346BDE8F04D1E
:1043500000F0EEB9AA1A0000495555555555C5BF8C
:10436000012201F0ECB8002213461046114600F07D
:104370008FBA0000024A0020110701F0E0B80000E7
:1043800001FDFFFF30380A2801D2012070470020CC
:104390007047000010B50446FBF77EFF214682B24D
:1043A000BDE810404FF0FF330148FEF75BBE000050
:1043B000680100200EB5FDF787FDFFF7ECF9FEF769
:1043C000A3FEFEF725FFFEF7EDFEFEF76BFFFEF7FF
:1043D0009FFFFFF752F8614C4FF07E53604A6149EE
:1043E00061480094FFF7A4F95F48230400225F4965
:1043F0002C300094FFF79CF908215D48FEF7CAFBBA
:104400004FF4FA60FEF7C0FF04215A48FEF728FA7D
:104410005948FEF70DF9012158A20846FFF7FCF8AC
:10442000012258495848FEF7B7FDA046574CDFF81F
:1044300060914FF0000A4FF41D77E06800F06EFEC7
:104440000246052307210120FFF7BAF8A06800F013
:1044500065FE0246052307210220FFF7B1F8E06858
:1044600000F0BCFD05460E46A06800F0B7FD024610
:10447000B4F900000095CDE901600B4645A0FFF7B7
:104480007AF9FFF765F9012819D1B4F9000000F0B5
:1044900086FB4FF03332474B00F0FAF9012201F06E
:1044A0004EF80022444B00F0A5FB00F00FF920610C
:1044B00000F094FD02460B4640A0FFF75CF9A4F81B
:1044C00002A000BFB4F9020000F069FB00224B46D5
:1044D00000F0DEF900F07EF800F0F8F84146A06147
:1044E00000F084FE00F01AFEA080E06800F016FEE6
:1044F0000246052307210120FFF762F8A06800F0BB
:104500000DFE0246052307210220FFF759F8E06857
:1045100000F064FD05460E46A06800F05FFD02460F
:10452000B4F900000095CDE901600B4619A0FFF732
:1045300022F90A20FDF7B2FBB4F9041023A0FFF71B
:104540001AF9B4F9040000F005FE20616088401CEF
:1045500000B26080B842B5DD6FE7000000401C4645
:104560000000F04100007042380000200000A0412F
:10457000D8000020200100209000002053706565C5
:10458000643A0000010000206801002004000020BF
:104590000000594053706565642C20456E635F735D
:1045A00070642C2052784E554D3A25662C25662C89
:1045B00025640A0033B33B40000034405461726705
:1045C00065745F76616C3A25660A000075313A259C
:1045D000640A000000B5254B21F0004287B09A42E2
:1045E00003DC0022134600922BE0214B9A4208D1B3
:1045F00040B94FF00100FBF79DFEFFF7B4FE07B096
:1046000000BD03DBFFF7ACFE07B000BD02AAFFF759
:1046100099FB10F003014FF001000DD0012914D0D7
:1046200002291AD00DF1080C9CE80F00FFF74EFD8F
:1046300007B081F0004100BD0DF1080C00909CE82E
:104640000F00FFF717FE07B000BD0DF1080C9CE846
:104650000F00FFF73BFD07B000BD0DF1080C009007
:104660009CE80F00FFF706FEE2E70000FB21E93FB0
:104670000000F07F10B500290AD00878002807D084
:1046800005487844FCF77CFE002801D0002010BDCE
:104690000248784410BD0000F2170000EA1700003D
:1046A00010B500290AD00878002807D005487844BA
:1046B000FCF766FE002801D0002010BD02487844B7
:1046C00010BD0000E2170000DA17000021F00042E0
:1046D000A2F16052B2F5801F01F0004328BFD2F171
:1046E0007F6C0BD95FEA001C43EAC20242EB5070B8
:1046F00018BF704728BF20F001007047B2F5801F37
:10470000BCBF184670474FEA410C1CF5001F02D28F
:10471000084600F032BE70B500F016FB00000089BC
:10472000FFF7F6BF4FF00040A0F580007047000093
:1047300010B591EA030F48BF83F0004300F16C838A
:10474000841A71EB030C05D2121943EB0C03001B06
:1047500061EB0C01DFF824E14FEA1154A4EB135C88
:104760001EEA430F18BF9EEA445F73D023EA0E038C
:10477000DCF1200E21EA045143F4801332D322FAF3
:104780000CFE10EB0E0023FA0CFE41EB0E01CCF1F7
:10479000200E03FA0EFE10EB0E0051F10001B1F5F0
:1047A000801FCCF1200E32D201EB045112FA0EF22E
:1047B000BDE8104058BF7047401C38BF5FEA420256
:1047C00018BF7047002814BF20F0010041F100011C
:1047D0004FEA410313F5001F38BF7047A1F1C041F4
:1047E00000F000BB012A43EB0302ACF1200CDCF12A
:1047F0001F0E32BF4FF0000E23FA0CF310EB030034
:1048000041EB0451B4EB115FD0D0A1EB045101F5A1
:10481000801149085FEA300001EB04510ED350F1DA
:10482000000038BF12FA0EFE08D1BDE81040C9E7FB
:10483000401C38BF5FEA4202CAD1C3E7BDE810405E
:104840004FEA410313F5001F38BF7047A1F1C04183
:1048500000F0C8BA9EEA445F08D011EA5E0FBDE8D6
:10486000104004BF01F0004100207047BDE8104037
:1048700070B500F069FA00BF64FBBE3E0000E0FFC7
:1048800002494FF0000000F028BE00BF0000F87F92
:104890002DE9C04130B4DFF8A0C23CEA111418BFC2
:1048A0003CEA131400F0EC8081EA03051CEA1114C1
:1048B00044EAD57418BF1CEA131500F0C780A4EBB6
:1048C00005044FF0004545EAC12145EAC32341EA0A
:1048D000505143EA525304F17F74994204F5003475
:1048E0004FEAC0204FEAC22208BF904200F09C80ED
:1048F0004FEA13650FF24016765D4FEA134506FB4B
:1049000005F7C7F1807706FB07F74FEAD737A7FB14
:1049100003687642C8F58038A7FB06CE38BFA8F1F9
:10492000010807FB08E64FF0000EA6FB028CE6FB31
:1049300003CEDCF1000CCEF1004E38BFAEF1010E1B
:10494000A6FB0C584FF000074FF00005E6FB0E8762
:10495000A1FB08C6A0FB07CE16EB0E0645F100052D
:10496000E1FB076515F1E04E7EBFA4F580345FEAF8
:1049700046066D4116F1800745F100054FEA1727FD
:104980004FEA066647EA0567A6F1DE46B6F1805FA4
:104990004FEA15251FD9384624F0010C05EBC471E8
:1049A000BCF1FE6F01EB0C1102D8F0BCBDE8008138
:1049B00024425CBF01F5801E9EEAC47F02D4F0BC95
:1049C000BDE80081244238D4F0BCA1F1C041BDE86B
:1049D000004100F007BA4FEAD22242EA43524FEABE
:1049E000D323A7FB02864FEAD02040EA415007FBC1
:1049F00003661EEA0E0F4FEAD12105FB026658BF7F
:104A0000A6EB0056B6EB00564FEA520E4EEAC37EB6
:104A100018EB0E0E56EB530EBDD518EB02085E4197
:104A20007F1C55F10005B6E74FF480154FF00007E5
:104A30004FF000064FF00008ADE7F0BC4FF000006B
:104A400001F1C04101F00041BDE8008111EA0C1FF5
:104A50000CEA131500D00CE013EA0C1F00F02580BF
:104A60004FF00000F0BC81EA030101F00041BDE815
:104A70000081F0BCBDE8004181EA030100F0B2B959
:104A8000F0BCBDE8004170B500F05EF9097EFC3E67
:104A900000F007B881EA03014FF0000001F0004187
:104AA000704781EA030100F09DB9F0BCBDE8004108
:104AB0004FF0000021497047FFFDFBF9F7F5F4F2D4
:104AC000F0EEEDEBE9E8E6E4E3E1E0DEDDDBDAD8A9
:104AD000D7D5D4D3D1D0CFCDCCCBCAC8C7C6C5C407
:104AE000C2C1C0BFBEBDBCBBBAB9B8B7B6B5B4B31E
:104AF000B2B1B0AFAEADACABAAA9A8A8A7A6A5A409
:104B0000A3A3A2A1A09F9F9E9D9C9C9B9A999998CC
:104B10009797969595949393929191908F8F8E8E6F
:104B20008D8C8C8B8B8A89898888878786858584FC
:104B300084838382828181800000FF070000F87FE8
:104B40004FEA41034FEA5353A3F58063D3F11E03A9
:104B5000C8BFD3F1210C0CDD4FF0004242EAC12264
:104B600042EA505232FA03FC8CEAE17CACEBE17091
:104B70007047102BC4BF0020704703F5787CBCF150
:104B8000FF3F04D06FF0004282EA2100704770B509
:104B900000F0DAF84992248000207047F2E710F024
:104BA000004248BF4042B0FA80F310FA03F10AD045
:104BB000C3F11D0303F580634FEA415002EB03523A
:104BC00002EBD12170474FF000007047B0FA80F33C
:104BD00010FA03F10AD0C3F11D0303F580634FEA15
:104BE00041504FEA035202EBD12170474FF00000D1
:104BF00070470000DFF848C170B51CEA111E1EBFE7
:104C00001CEA13159EEA0C0F95EA0C0F00F06F805A
:104C100081EA030423EA4C134EEAD47E21EA4C11C4
:104C200041F4801143F48013AE44A1FB024CA0FB7D
:104C30000365AEF17F7E361955EB0C05A1FB034CE5
:104C40004CF10003A0FB021C16EB0C06654153F16E
:104C50000003094218BF46F0010613F4007F0BD190
:104C60004FEA03314FEA0530340341EA155140EA77
:104C700016506FF003020AE04FEAC3214FEAC52045
:104C8000F40241EA555140EA56506FF0020202EB3D
:104C90002E4201EB025585EACE710AD05FEA440C40
:104CA00018BF24F0004450F1000041F1000120EA57
:104CB000D47040F2FE7C624500D270BDA84214BFA1
:104CC0004FF080444FF04044002E08BF0024BEF156
:104CD000806FA8BFA1F1C041BDE8704080F2828022
:104CE0004FF0000001F1C04101F0004170479EEA21
:104CF0000C0F0CEA131518BF95EA0C0F06D04FF0F5
:104D0000000081EA030E0EF0004170BD00F01CF8B7
:104D10008900013E00F007B800F009B84FEA430CE3
:104D20005FEA5C5C08D081EA030100F05BB84FEAFF
:104D3000410C5FEA5C5CF6D14FF00000014970471E
:104D40000000FF070000F87F0EF1020E2EF0030EA8
:104D50005EF8046B364205D4012A43EB030515F5D2
:104D6000001F12D8012841EB010C1CF5001F0CD8C4
:104D70000ED14FEAD17C15F5001F0CEB4C0C0CF159
:104D8000020C08BF4CEBD37C04E04FF0080C01E0B0
:104D90004FEAD37C0CEB4C0526FA05F606F0070625
:104DA000B6F1040C06D20EEB860CBDE870404CF058
:104DB000010C6047DFE80CF0090B02024FF00041E4
:104DC0004FF00000A1F5002170BD194610460128E2
:104DD00051EB010418BFD4F5001484BF002001F08A
:104DE000004170BD0808A0F500114FEA310170477D
:104DF00091EA030F10B581F000413FF5A1AC83F0BB
:104E0000004300F009B8000010B591EA030F48BF55
:104E100083F000433FF594AC841A71EB030C07D286
:104E200012198CF0004C43EB0C03001B61EB0C01DE
:104E3000DFF8A4E14FEA1154A4EB135C1EEA430F20
:104E400018BF9EEA445F00F0B08023EA6E0352422E
:104E500021EA0451C3EB6E0338BF5B1EDCF1200E68
:104E600025D322FA0CFE10EB0E0043FA0CFE41EBA8
:104E70000E01CCF1200E03FA0EFE10EB0E0051F1E4
:104E80000001CCF1200E29D412FA0EF201EB0451EC
:104E9000BDE8104058BF7047401C1CBFB2F1004F26
:104EA000704700280CBF491C20F00100704712EB2E
:104EB000020E43EB030218BF4FF0010E4EEA42020E
:104EC000ACF1200CDCF11E0E54D943FA0CFE10EBB1
:104ED0000E0051F1FF31CCF11E0ED5D50EF1010EB1
:104EE00012FA0EFE404141EB010101EB445C5FEA26
:104EF0005C5C10D910EBDE7001EB045138BFBEF1E1
:104F0000004FBDE8104018BF704700280CBF491C77
:104F100020F00100704730D24FEAD42C11F5001177
:104F200024F400641BD0B1FA81F20B3AA41AA41E37
:104F3000D2F12003914030FA03F31943904001EB82
:104F4000CC71002C01EB0451BDE81040A8BF7047A4
:104F500001F1C0414FF0000001F000417047B0FA8C
:104F600080F310FA03F100D110BDE41A173C480594
:104F7000C90AE4E701EB045110BD491001EB0451EB
:104F8000BDE810404FEA300002E04FF000017047EA
:104F90004A0008BF0042F8D0B2F5001F28BF704792
:104FA00001F000414FF0000070479EEA445F07D0D7
:104FB00011EA5E0FBDE8104004BF002100207047D9
:104FC000BDE8104070B5FFF7BFFE00BF40DFF63E02
:104FD00083F00041104670470000E0FF43004FEAB5
:104FE000D30C4FEA3C0C43401FBF40070CF160510B
:104FF00013F0FE4F70471CF0006F03D100200CF03F
:10500000004170470CF0004343EA507010B540EA8D
:10501000CC0000F06CF900BF000000924FEA0001E4
:10502000FFF7E0BE4FF000414FF00000A1F5002176
:105030007047000090EA010F48BF81F0004100F185
:10504000DA81421A3CBF801A89184FEAD0524FF0D9
:105050007F4C1CEA410FA2EBD15318BF9CEA026FB0
:1050600000F03B804FF0004C4CEA00204CEA01215C
:1050700021FA03FC10EB0C0C1ED202F1FF325FEAA6
:105080001C2040EBC25038BF70471CF07F0F4FEA26
:10509000400C18BFBCF17F4F38BF7047C3F12003ED
:1050A000994008BF20F00100BCF17F4F38BF704726
:1050B000A0F1C04000F061B94FEA3C00000A40EBAB
:1050C000C25028BF1CF0FF0F4FEA400CE6D018BFBB
:1050D000BCF17F4F38BF7047EAE79CEA026F05D00A
:1050E00010EA5C0F08BF00F00040704710B500F0F8
:1050F000FEF800BF64FBBE3E014800F0EEB900BF01
:105100000000C07F401058BFC0F14040491058BF58
:10511000C1F140418142EFF30080704741000B0E26
:10512000D3F19E0208D950F400034FEA032323FA77
:1051300002F048BF4042704710B500F0D8F800BFF9
:1051400049922480002070476FF0004282EA2000DC
:105150007047000010F0004148BF4042B0FA80F3B1
:1051600010FA03F2C3F19D030BD051EAC35101EBD6
:105170001220530638BF704700F1010008BF20F02D
:105180000100704750EA010C00F113801CF5000F7C
:1051900058BFBCF5000F01D48842704707D710F5FF
:1051A000000F58BF11F5000F15D48842704789428F
:1051B00070471CF5000F04D5BCF5000FF7D58142F0
:1051C00070474FF0807C1CEB400F38BF1CEB410F49
:1051D00001D28142704710B500F089F8922449004D
:1051E0004FF000504FF08051FFF78CBF4FF47F0C11
:1051F0001CEAD0121EBF1CEAD11392EA0C0F93EAEC
:105200000C0F00F0478090EA010F48BF42F4807213
:105210004FF0004C4CEA00204CEA012102EB030263
:10522000A0FB0113A2F50002002918BF43F00103FF
:105230005B0028BF4FEA330342EB22425FEA132CA4
:105240004CEBC2502EBFBCEB436FB2F57C0F7047E6
:105250004FEA036CBCF1004F08BF20F00100B2F52B
:105260007C0F38BF70470BD582F0FF0212F5803FEC
:10527000C8BF704700F1C040D8BF00F00040704781
:1052800000F5000C5FEA4C0C48BF7047B0F1C0401D
:1052900000F073B890EA010F0CEAD11348BF42F452
:1052A0008072624538BF634504D280EA010000F095
:1052B0000040704710B500F01AF800BF8900013EA9
:1052C00000F007B800F009B85FEA410C5FEA1C6C17
:1052D00008D080EA010000F050B85FEA400C5FEAB5
:1052E0001C6CF6D14FF00040A0F5800070470EF125
:1052F000020E2EF0030E5EF8044B244204D44FEA53
:105300004102B2F17F4F11D84FEA4003B3F17F4F12
:105310000CD80ED14FEAD07CB2F17F4F0CEB4C0C85
:105320000CF1020C08BF4CEBD17C04E04FF0080CF0
:1053300001E04FEAD17C0CEB4C0324FA03F404F0B7
:105340000704B4F1040C06D20EEB840CBDE8104047
:105350004CF0010C6047DFE80CF0070802024FF048
:105360000040A0F5800010BD0846420018BFD2F1F1
:10537000807288BF00F0004010BDFF2141EAD0508C
:10538000C005704751EA000C00F113801CF5000FB6
:1053900058BFBCF5000F01D48142704707D711F503
:1053A000000F58BF10F5000F15D481427047894295
:1053B00070471CF5000F04D5BCF5000FF7D58842E7
:1053C00070474FF0807C1CEB410F38BF1CEB400F47
:1053D00001D28842704780EA010081EA000180EA38
:1053E0000100FFF7F8BE000090EA010F48BF81F00E
:1053F00000413FF526AE421A04D882F00042A0EBED
:10540000020011444FEAD0524FF07F4C1CEA410F8A
:10541000A2EBD15318BF9CEA026F4AD04FF0004C68
:105420004CEA00204CEA012121FA03FCB0EB0C0C01
:105430000FD412F0FE0F36D05FEA4C001DD50012DB
:1054400040EBC25038BF70471CF03F0F18BF704789
:105450000BE0A2F101025FEA1C2040EBC25038BF12
:1054600070471CF07F0F18BF7047C3F120039940AD
:1054700014BF401E20F00100704780084FEA12233D
:1054800008BF7047B0FA80FCA2EB0C02CCF1280CEC
:1054900060FA0CF093EA122F04BF00EBC250704781
:1054A0004FEAC3707047130A5FEADC1008BF704709
:1054B000F6E79CEA026F04D010EA5C0F08BF0020F8
:1054C000704710B5FFF713FF40DFF63E81F0004054
:1054D0007047FBF762BBFBF797BC0CF00F03092B7F
:1054E00008BF082000F07F800A2B0BD0082B18BFC4
:1054F000704708BF1CF0400F0AD04FF000004FF07B
:10550000000170471CF0400F18BF4FF0004070477B
:105510001CF0100F08D020F0704300F07F4242EAE8
:10552000D3014FEA4370704700F0604021F07F42A2
:1055300042EA000201F07F4040EA727070474FF08B
:10554000FF0C4CF4E06C1CEA11531CBF9CEA030CEA
:105550009445C2BFDA4201EB02517047002B0DD0D7
:10556000BCF1000F0FD0002A01F00041A4BF41F0B0
:10557000E04141F07F614FF00000704701F00041D1
:105580004FF00000704750EA01334FF09B0C18BFFA
:105590004CF0806C7FF474A970474FF0FF0212EA60
:1055A000D0521CBF92F0FF038B42C2BFD14200EB2E
:1055B000C1507047002A0AD0002B0BD0002900F000
:1055C0000040A4BF40F0FE4040F40000704700F0EF
:1055D0000040704743024FF00B0C18BF4CF0806C3A
:1055E0007FF48AAD70471CF4801F11D01CF4E02FAB
:1055F00003D06FEACC31490070474FF04050EFF3D1
:10560000008222F0704242EA000282F30088704772
:105610004FF0000070470000000000000000000094
:10562000000000000000000000F800000000000082
:1056300000333000000000100C06100C06000000C3
:1056400000000000000040C07840C0784000043FE7
:1056500004043F040400007088FC083000000018B7
:1056600020FF211E0000F008F000E01800000021DB
:105670001C031E211E0000F00888700000001E217F
:1056800023241927211010160E000000000000002E
:10569000000000000000000000E01804020000000C
:1056A00000071820400000020418E000000000403D
:1056B000201807000000404080F0804040000202B7
:1056C000010F01020200000000F0000000000101D3
:1056D000011F01010100000000000000000080B077
:1056E0007000000000000000000000000000000149
:1056F0000101010101010000000000000000003074
:10570000300000000000000000008060180400600D
:1057100018060100000000E010080810E000000F6B
:10572000102020100F00001010F8000000000020D2
:10573000203F20200000007008080888700000301A
:1057400028242221300000300888884830000018C2
:10575000202020110E000000C02010F800000007DB
:105760000424243F240000F8088888080800001951
:10577000212020110E0000E0108888180000000F82
:10578000112020110E0000380808C8380800000059
:10579000003F000000000070880808887000001CAE
:1057A000222121221C0000E010080810E000000067
:1057B000312222110F00000000C0C00000000000D4
:1057C00000303000000000000080000000000000F9
:1057D00080600000000000008040201008000001F0
:1057E00002040810200040404040404040000404B3
:1057F000040404040400000810204080000000207D
:10580000100804020100007048080808F0000000B9
:10581000003036010000C030C828E810E00007184A
:10582000272423140B000000C038E0000000203CB7
:1058300023020227382008F8888888700000203F5B
:10584000202020110E00C030080808083800071872
:1058500020202010080008F808080810E000203F69
:10586000202020100F0008F88888E8081000203F4A
:1058700020202320180008F88888E8081000203F1E
:10588000200003000000C030080808380000071896
:105890002020221E020008F808000008F808203F17
:1058A000210101213F20000808F80808000000201D
:1058B000203F2020000000000808F8080800C080F1
:1058C00080807F00000008F888C028180800203F6A
:1058D00020012638200008F8080000000000203FC2
:1058E00020202020300008F8F800F8F80800203FB9
:1058F000003F003F200008F830C00008F808203FB3
:10590000200007183F00E01008080810E0000F1002
:10591000202020100F0008F808080808F000203F99
:10592000210101010000E01008080810E0000F1834
:10593000242438504F0008F8888888887000203F59
:105940002000030C30200070880808083800003858
:10595000202121221C00180808F80808180000005F
:10596000203F2000000008F808000008F808001F89
:10597000202020201F000878880000C83808000078
:1059800007380E010000F80800F80008F800033C92
:105990000700073C0300081868808068180820305A
:1059A0002C03032C30200838C800C8380800000039
:1059B000203F2000000010080808C83808002038E0
:1059C000262120201800000000FE02020200000034
:1059D000007F40404000000C30C00000000000008C
:1059E00000010638C00000020202FE000000004074
:1059F00040407F000000000004020202040000009A
:105A00000000000000000000000000000000808096
:105A1000808080808080000202040000000000007E
:105A2000000000000000000080808080000000195D
:105A3000242222223F2008F8008080000000003F3E
:105A4000112020110E000000008080800000000E58
:105A5000112020201100000000808088F800000E36
:105A6000112020103F200000808080800000001F57
:105A7000222222221300008080F0888888180020CB
:105A8000203F202000000000808080808000006B8C
:105A900094949493600008F8008080800000203F78
:105AA000210000203F200080989800000000002086
:105AB000203F20200000000000809898000000C0D7
:105AC0008080807F000008F8000080808000203FF8
:105AD00024022D302000000808F8000000000020FB
